:1000000001308A00C82900002C08F8012B020318CF
:100010000C282B08F7001828F7010830AD00AB0DAD
:10002000F70D2C0877020318F700F80DAD0B0F2819
:100030000800033027078400831328188317260835
:10004000AB000A30AC000420770880002608AB0023
:100050000A30AC0004207808A6000230270784008C
:100060008313281883172608AB000A30AC0004203D
:10007000770880002608AB000A30AC00042078081E
:10008000A600013027078400831328188317260849
:10009000AB000A30AC000420770880002608AB00D3
:1000A0000A30AC0004207808A600270884008313D7
:1000B000281883172608AB000A30AC000420770804
:1000C00080008A110A12E3292C308400831300086F
:1000D000031977280630F800F701F70B6D28F80BA5
:1000E0006C287B30F700F70B7328800B6A28080018
:1000F0002D08F63E031827290A3E2A298611831661
:100100008611831206118316061183128610831638
:100110008610831206108316061083122729861173
:100120008316861183120611831606118312861018
:10013000831686108312061483160610831227294D
:1001400086118316861183120611831606118312F7
:1001500086148316861083120610831606108312E7
:10016000272986118316861183120611831606111C
:1001700083128614831686108312061483160610C3
:10018000831227298611831686118312061583167A
:1001900006118312861083168610831206108316AA
:1001A00006108312272986118316861183120615DD
:1001B0008316061183128610831686108312061486
:1001C000831606108312272986118316861183123F
:1001D0000615831606118312861483168610831261
:1001E000061083160610831227298611831686119E
:1001F0008312061583160611831286148316861041
:100200008312061483160610831227298615831677
:100210008611831206118316061183128610831627
:10022000861083120610831606108312272986155E
:100230008316861183120611831606118312861007
:1002400083168610831206148316061083128A11F1
:100250000A12B8290A148A100A1182077E288F28E8
:10026000A028B128C228D328E428F5280629172970
:100270002D08FB3E03189229053E93290616831686
:1002800006128312861683168612831206178316A9
:100290000613831286178316861383129229061279
:1002A0008316061283128616831686128312061789
:1002B00083160613831286178316861383129229D8
:1002C000061683160612831286128316861283126E
:1002D0000617831606138312861783168613831256
:1002E0009229061683160612831286168316861224
:1002F000831206138316061383128617831686133A
:100300008312922906168316061283128616831606
:10031000861283120617831606138312861383161A
:100320008613831208000A148A100A1182073E29D4
:100330004F296029712982292808013C0318C52901
:100340000130A8020A30AC0064202708AA00260861
:10035000A900AB012B08033C031CC4292B08290767
:10036000840083132A1883170008AC00AD00782896
:1003700001302B07AC00AD0038210230AC00642006
:10038000AD013821AB0AAA299C298A110A12E92950
:1003900003081F39830083161F149F141F159F1114
:1003A00007309C00831301308312A2000230A300A7
:1003B0000330A4000430A500A1012108A600A80173
:1003C0002230A7001928A7012230A6000A30A80071
:0A03D0009C29A10ADD29DC29630045
:02400E00323F3F
:00000001FF
;PIC16F877A
;CRC=126C  CREATED="23-Sep-17 01:02"
